{
  "_format": "hh-sol-artifact-1",
  "contractName": "Groth16Verifier",
  "sourceName": "contracts/Verifier.sol",
  "abi": [
    {
      "inputs": [
        {
          "internalType": "uint256[2]",
          "name": "_pA",
          "type": "uint256[2]"
        },
        {
          "internalType": "uint256[2][2]",
          "name": "_pB",
          "type": "uint256[2][2]"
        },
        {
          "internalType": "uint256[2]",
          "name": "_pC",
          "type": "uint256[2]"
        },
        {
          "internalType": "uint256[2]",
          "name": "_pubSignals",
          "type": "uint256[2]"
        }
      ],
      "name": "verifyProof",
      "outputs": [
        {
          "internalType": "bool",
          "name": "",
          "type": "bool"
        }
      ],
      "stateMutability": "view",
      "type": "function"
    }
  ],
  "bytecode": "0x6080604052348015600f57600080fd5b506105b58061001f6000396000f3fe608060405234801561001057600080fd5b506004361061002b5760003560e01c8063f5c9d69e14610030575b600080fd5b61004361003e36600461051f565b610057565b604051901515815260200160405180910390f35b60006104ca565b7f30644e72e131a029b85045b68181585d2833e84879b9709143e1f593f0000001811061008f576000805260206000f35b50565b600060405183815284602082015285604082015260408160608360076107d05a03fa9150816100c5576000805260206000f35b825160408201526020830151606082015260408360808360066107d05a03fa915050806100f6576000805260206000f35b5050505050565b7f1b52523cf6c6e58dd024e8cca0493d958580ab820744684cc60e81d851df5bf485527f190436d03c63a312c94e658aa89dcb049ea1d7ee49a8d8b03f3363a89112e6d560208601526000608086018661019a87357f2146ee4c4d16aee7b2773e36a39b8a0b3372df490362b156fec1a0353af141ca7f2fa33a5564d3be2ac66c5d8ae119ae169fa382f5185038304d3b57dc82f3a1ab84610092565b6101ea60208801357f2c276cc170b8b8a947b53521ef751a6cf0c97adc1f02e80d219231a59480d4be7f2db45bfc0764f21ec6d0f84bc91c9447c62f290832c8d44d3a50d80edb2b1ae184610092565b50823581527f30644e72e131a029b85045b68181585d97816a916871ca8d3c208c16d87cfd4760208401357f30644e72e131a029b85045b68181585d97816a916871ca8d3c208c16d87cfd4703066020820152833560408201526020840135606082015260408401356080820152606084013560a08201527f21c2d39d46561b5b20ab8f902bcdff6b97608c85e49b7895452dbee95b5e5bee60c08201527f2e2752b68ff3c55cf47e905c5960777ee6958f13f5097a466c82a7f63aabcc0d60e08201527f10e2e7f07dcf784ce6fb500b92fbaf9f3265c4b9bb7374edb4908817d865f7446101008201527f01c29179ad78366aee77f421b30e95062a111b087fb5a3b0753b0444270daad06101208201527f1bd00838bf6cdce1e884d11f30e47e2c2ed88bf031c8fc633543c03debc14e1e6101408201527f238d8f887cde231475d3cb2ea13cee4210ab0f0605a2a47c7cdb6079bb8673a7610160820152600087015161018082015260206000018701516101a08201527f198e9393920d483a7260bfb731fb5d25f1aa493335a9e71297e485b7aef312c26101c08201527f1800deef121f1e76426a00665e5c4479674322d4f75edadd46debd5cd992f6ed6101e08201527f090689d0585ff075ec9e99ad690c3395bc4b313370b38ef355acdadcd122975b6102008201527f12c85ea5db8c6deb4aab71808dcb408fe3d1e7690c43d37b4ce6cc0166fa7daa610220820152843561024082015260208501356102608201527f198e9393920d483a7260bfb731fb5d25f1aa493335a9e71297e485b7aef312c26102808201527f1800deef121f1e76426a00665e5c4479674322d4f75edadd46debd5cd992f6ed6102a08201527f090689d0585ff075ec9e99ad690c3395bc4b313370b38ef355acdadcd122975b6102c08201527f12c85ea5db8c6deb4aab71808dcb408fe3d1e7690c43d37b4ce6cc0166fa7daa6102e08201526020816103008360086107d05a03fa9051169695505050505050565b60405161038081016040526104e2600084013561005e565b6104ef602084013561005e565b6104fc818486888a6100fd565b90508060005260206000f35b806040810183101561051957600080fd5b92915050565b600080600080610140858703121561053657600080fd5b6105408686610508565b935060c085018681111561055357600080fd5b6040860193506105638782610508565b925050610574866101008701610508565b90509295919450925056fea2646970667358221220248f7ff3f010bd79825131837afe6b765013f2adb9fa5ea5639abddf047efca264736f6c634300081c0033",
  "linkReferences": {},
  "deployedLinkReferences": {}
}